:020000040808EA
:10000000000008084C310808000006000A0005013D
:080010000402FD0800000000DD
:04001800D02E0808D6
:1000200009480A4908B5884205D0094A824202D0E7
:10003000121A02F0A3FE0748074A0021121A02F022
:10004000ABFE064808BD00BF000000208430080851
:10005000A0000020A0000020F1060020F1060020F2
:1000600070B501F0F3FA0025054E064CA41BA40858
:10007000A54200D170BD56F8043B98470135F7E71B
:10008000583008087830080800F014B808B500F0B7
:1000900065FABDE8084001F091BA00F0D9BF00F060
:1000A000DFBF0078B0FA80F0400970470123037089
:1000B0007047000073B50024B4254FF41663CDE9F2
:1000C00000454FF408720121434801F019FCCDE9C5
:1000D00000452146414D424C4FF408724FF41663DF
:1000E000404E414801F00CFC2146284600F072FDCC
:1000F0003146284600F09EFD28463C4D214600F042
:10010000ABFD2146284600F065FD3146284600F04B
:1001100091FD2146284600F09FFD354B01211888AE
:1001200001F0B4FC334B0121188801F0AFFC324BD5
:100130000121188801F0AAFC304B0121188801F038
:10014000A5FC2F4B0121188801F0A0FC2D4B0121AB
:10015000188801F09BFC0121232001F097FC01216C
:10016000222001F093FC0121212001F08FFC0121CC
:10017000202001F08BFC01211F2001F087FC0121D0
:100180001E2001F083FC01210A2001F07FFC0121E7
:100190000B2001F07BFC1C4B0121188801F076FC40
:1001A0001A4B0121188801F071FC194B01211888A4
:1001B00001F06CFC174B0121188801F067FC164B0D
:1001C0000121188801F062FC0121144B188802B04B
:1001D000BDE8704001F05ABCA0000020C000002023
:1001E0000000484300004842B000002014010020F5
:1001F000000000202C00002004000020200000202F
:100200002400002028000020080000200C0000200E
:100210001000002014000020180000201C00002006
:100220002DE9F0410524DFF86C80174F0121B8F863
:100230000000164E01F03BFC154D0121388801F0FD
:1002400036FC0121308801F032FC0121288801F0C0
:100250002EFCC82001F06CF90021B8F8000001F074
:1002600026FC0021388801F022FC0021308801F0B2
:100270001EFC0021288801F01AFCC82001F058F962
:10028000013CD2D1BDE8F0812000002024000020F4
:1002900028000020000000202DE9F0410524DFF8AF
:1002A0006C80174F0121B8F80000164E01F0FFFBDB
:1002B000154D0021388801F0FAFB0121308801F04A
:1002C000F6FB0021288801F0F2FBC82001F030F98C
:1002D0000021B8F8000001F0EAFB0121388801F0A4
:1002E000E6FB0021308801F0E2FB0121288801F0C3
:1002F000DEFBC82001F01CF9013CD2D1BDE8F08141
:100300002000002024000020280000200000002001
:1003100038B54624054D2146284601F0B4FA14208C
:1003200001F006F9013CF6D138BD00BFB000002055
:1003300038B50024054D2146284601F0A4FA0134C1
:10034000142001F0F5F8462CF5D138BDB00000209E
:1003500038B55A24054D2146284601F094FA142058
:1003600001F0E6F8013CF6D138BD00BFA000002046
:1003700038B50024054D2146284601F084FA0134A1
:10038000142001F0D5F85A2CF5D138BDA00000207A
:1003900038B55A24054D2146284601F074FA013437
:1003A000142001F0C5F8B42CF5D138BDA000002010
:1003B00010B5054C6FF0C701204600F073FB2046D6
:1003C000BDE8104000F088BCC000002010B5054C0E
:1003D000C821204600F066FB2046BDE8104000F032
:1003E0007BBC00BF1401002010B5054CC82120467D
:1003F00000F058FB2046BDE8104000F06DBC00BF87
:10040000C000002010B5054C6FF0C701204600F079
:1004100049FB2046BDE8104000F05EBC14010020FE
:1004200008B5124B0121188801F041FB104B012146
:10043000188801F03CFB0F4B0121188801F037FBB5
:100440000D4B0021188801F032FB0C4B002118885D
:1004500001F02DFB0A4B0121188801F028FBBDE8B3
:1004600008404FF47A6001F063B800BF0800002034
:100470000C000020100000201400002018000020B4
:100480001C00002008B50D4B0021188801F00FFB5F
:100490000B4B0121188801F00AFB0A4B0121188837
:1004A00001F005FB084B0021188801F000FBBDE8B6
:1004B00008404FF47A6001F03BB800BF1000002004
:1004C00014000020180000201C00002008B50D4B6F
:1004D0000121188801F0EBFA0B4B0021188801F07C
:1004E000E6FA0A4B0121188801F0E1FA084B0021D5
:1004F000188801F0DCFABDE8084040F2DC5001F059
:1005000017B800BF100000201400002018000020C1
:100510001C00002008B50D4B0021188801F0C7FA17
:100520000B4B0121188801F0C2FA0A4B00211888F0
:1005300001F0BDFA084B0121188801F0B8FABDE8B6
:10054000084040F2DC5000F0F3BF00BF1000002074
:1005500014000020180000201C00002008B5FFF740
:100560005FFEFFF705FFFFF74DFFFFF74BFFFFF7BC
:1005700049FF4FF47A7000F0DBFFFFF7D9FE4FF42C
:10058000FA6000F0D5FFFFF7C3FE4FF47A7000F079
:10059000CFFFFFF7DDFEFFF77FFEFFF7C9FEFFF796
:1005A00007FFFFF713FFFFF711FFFFF701FFFFF74B
:1005B0000DFFFFF719FFFFF709FFFFF7A9FE4FF443
:1005C0007A7000F0B5FFFFF71DFFFFF71BFFFFF785
:1005D0000BFFFFF7CDFEFFF723FFFFF777FFFFF7D6
:1005E000D7FE4FF47A7000F0A3FFFFF7E1FEFFF7AC
:1005F000EDFEFFF7DDFEFFF7E9FE4FF47A7000F045
:1006000097FFFFF795FE4FF4FA6000F091FFFFF7B8
:10061000F9FEFFF7F7FEFFF7E7FEFFF7F3FE4FF4F3
:100620007A7000F085FFFFF737FEFFF773FFFFF7E3
:1006300029FFFFF74BFFFFF79BFEFFF779FE4FF413
:10064000FA6000F075FFFFF763FE4FF47A7000F078
:100650006FFFBDE808404FF47A7000F069BF0000FA
:100660001FB501242023CDE9013422232322009346
:10067000042121230B4800F075FA1E230A220421CD
:10068000CDE9003202940B231F22074800F06AFADA
:10069000064801F021F9064804B0BDE8104001F019
:1006A0001BB900BFC000002014010020A0000020E2
:1006B000B00000200379082B1BD8DFE803F0050801
:1006C0000B0E111A141A170003681B6918470368E8
:1006D0005B69FBE703689B69F8E70368DB69F5E79B
:1006E00003681B6AF2E703685B6AEFE703689B6ACB
:1006F000ECE77047062391FBF3F202FB1313052B83
:100700001CD8DFE803F003070B0F1317042103685D
:100710009B681847036805219B68FAE70368012175
:100720009B68F6E7036803219B68F2E703680221F0
:100730009B68EEE7036806219B68EAE77047036859
:1007400001F0070101399B68062905D8DFE801F0AF
:1007500006080A0C0E101200012118470521FCE7BB
:100760000421FAE70621F8E70221F6E70A21F4E777
:100770000821F2E70921F0E7F8B505790F46042DC5
:1007800007D0082D17D0032D03D0062D14BF022546
:1007900003250026441D14F8010B47FA06F3E178FF
:1007A000DB0748BF81F00101013601F080F9F3B2A7
:1007B0009D42F0D8F8BD0425EBE710B5044690F84B
:1007C00050200368002A14BF022100219B6898472B
:1007D00094F850202368002A14BF032101212046E9
:1007E0009B689847206B00F06FFB94F850202368BB
:1007F000002A2046BDE8104014BF022100219B685A
:10080000184710B500210446806902F061FA18B15A
:10081000A36BBDE810401847E36BFAE7036801F0EB
:10082000030102299B6806D0032906D0012914BFC1
:100830000221032118470121FCE70021FAE70323E5
:1008400091FBF3F303EB4303C91A0129024606D0D7
:10085000022904D031B9042103689B681847136842
:100860009B68FBE77047036801F0030102299B685E
:1008700006D0032906D0012914BF052106211847F7
:100880000A21FCE70921FAE710B50379044693B180
:10089000036800219B68984794F83500FF280AD028
:1008A000012101F0F3F894F8341094F83500BDE814
:1008B000104001F0FCB810BD10B50379044663B3D5
:1008C0000121407901F0E2F80121A07901F0DEF880
:1008D0002379042B01D0082B18D10121E07901F0F4
:1008E000D5F80121207A01F0D1F894F83500FF28DD
:1008F00013D0012101F0CAF894F8341094F83500AF
:1009000081F00101BDE8104001F0D1B8032B01D006
:10091000062BEAD10121E079E5E710BD38B5836AFD
:1009200004460BB9002038BD00F0D6FAE36AA26A8B
:10093000C31A93420546F5D394F85030216943B168
:100940000131236821612046DB6898470120E56278
:10095000E9E70139F5E700002DE9F0478169044630
:10096000D0E90467084601F0F7FF01F047FB804635
:10097000206A894601F042FB02460B4601F0E0F98D
:1009800002460B464046494601F0BAFCBD1B01F049
:100990003DFE002D52D101285BDC0023A562A3613E
:1009A0002564BDE8F087002B08DDA84203DA94F83F
:1009B0005030002B4DD1404220644AE049D0A8423B
:1009C00047DA94F85020002A43D05B42236440E089
:1009D0003FD0F61B86423CDD94F85020002A38D1E7
:1009E000F3E7A06C01F00AFB02460B4606460F46F1
:1009F00001F0A6F980465046894601F0EDFA002242
:100A0000254B01F053FB0022244B01F099F90246DB
:100A10000B464046494601F073FC02460B46304601
:100A2000394601F08BF901F039FEE66C0546314696
:100A300002F04EF900B93546A56417E0236CB2DC2C
:100A4000002BC5DDF61B8642B5DD94F85030002B37
:100A5000B1D1D4F840A0BAF1000FC2D1002DD4BF5B
:100A600000250125636C84F85050A364A56C0AF13D
:100A700001032364284602F05BF92946A062084876
:100A800002F01EF894F85030A061002B89D100F1DB
:100A90000040A06185E700BF000010400000F03F6B
:100AA0000024744942698A4202D04161FFF754BF71
:100AB0007047000000000000F8B5076A0446384699
:100AC0000D4602F0DDF868BB206C01F0F1FE29460E
:100AD0000646384601F0F4FF0146304601F03CFF7F
:100AE00002F000F92064284601F088FA02460B461D
:100AF00000204FF0804101F003FC00F0F5FF0AA355
:100B0000D3E9002301F0D2FA09A3D3E9002301F0CD
:100B1000CDFA01F0C3FD256260642046BDE8F840CF
:100B2000FFF71ABFF8BD00BF6F1283C0CAA1E53F2F
:100B30000000000080842E4110B50446FFF7EEFE51
:100B400010B12046FFF708FF0021A06902F098F8D5
:100B500028B1D4E90430C01A18BF012010BD01200B
:100B6000FCE700004FF0010CF8B5194D4FF07E5630
:100B70000560017100250021C0F830C04FF0FF0C66
:100B800083719DF818309DF82070C3719DF81C305A
:100B90000446C0E904118561C6610562466281624E
:100BA00080F835C0C1624271037201644564856496
:100BB000C66480F850104172418101730FB1FFF794
:100BC0007BFE20464FF07E51FFF776FF2046F8BDB2
:100BD000EC2E0808F8B50446C0690D4602F050F83E
:100BE00028BB29461248E56101F06AFF236CE064E6
:100BF000002B1CDDA169084601F0AEFE01F0FEF9F4
:100C00000646206A0F4601F0F9F902460B4601F04C
:100C100097F80B4602463946304601F071FB01F069
:100C2000F5FC20642046BDE8F840FFF795BEF8BD0E
:100C30000024744938B50C4605460021204602F0D0
:100C40001FF828B921462846BDE83840FFF734BFD1
:100C500038BD000000000000F8B5044680690E466B
:100C600002F00EF8A8B9E769304607F100452946B9
:100C700002F010F828B93946304602F029F848B990
:100C800035460021284601F0FBFF28B10023A3626E
:100C9000A561F8BD3D46F4E7284601F0AFF90246EC
:100CA0000B460BA1D1E9000101F02AFB21F0004322
:100CB000194601F0D3FC0021A062284602F008F892
:100CC000003818BF012084F85000E1E7AFF300803E
:100CD0000000000080842E4110B504462046FFF736
:100CE0002BFF0028FAD110BD08B5024B1B681B680A
:100CF000019308BD1C00060808B5024B1B681B6960
:100D0000019308BD1C00060808B5024B1B685B690F
:100D1000019308BD1C00060808B5024B1B689B69BF
:100D2000019308BD1C00060808B5024B1B68DB696F
:100D3000019308BD1C00060808B5024B1B681B6A1E
:100D4000019308BD1C00060808B5024B1B681B690F
:100D5000019308BDA801040808B5024B1B685B6934
:100D6000019308BDA801040808B5024B1B689B69E4
:100D7000019308BDA801040808B5024B1B68DB6B92
:100D8000019308BD2000060808B5024B1B68DB690B
:100D9000019308BDB401040808B5024B1B681B6A27
:100DA000019308BDB401040808B5024B1B681B6A17
:100DB000019308BDAC01040808B5024B1B685B6ACF
:100DC000019308BDAC01040808B5024B1B689B6A7F
:100DD000019308BDAC01040808B5024B1B68DB6A2F
:100DE000019308BDAC01040808B5024B1B681B6BDE
:100DF000019308BDAC01040808B5024B1B685B6B8E
:100E0000019308BDAC01040808B5024B1B681B6CBC
:100E1000019308BDAC01040808B5024B1B689B692F
:100E2000019308BDC401040808B5024B1B685B6A46
:100E3000019308BDC401040808B5024B1B689B6AF6
:100E4000019308BDC401040808B5024B1B68DB6AA6
:100E5000019308BDC401040808B5024B1B681B6B55
:100E6000019308BDC401040808B5024B1B685B6B05
:100E7000019308BDC401040808B5024B1B689B6BB5
:100E8000019308BDC401040808B5024B1B681B6C24
:100E9000019308BDC401040808B5024B1B685B6CD4
:100EA000019308BDD001040808B5024B1B689B6C78
:100EB000019308BDD001040808B5024B1B685B68AC
:100EC000019308BD9C01040808B5024B1B68DB6850
:100ED000019308BD9C01040808B5024B1B681B69FF
:100EE000019308BD9C01040808B5024B1B685B69AF
:100EF000019308BD9C01040808B5024B1B685B68A0
:100F0000019308BDB001040808B5024B1B689B683B
:100F1000019308BDB001040808B5024B1B68DB68EB
:100F2000019308BDB001040808B5024B1B681B699A
:100F3000019308BDB001040808B5024B1B68DB6BC8
:100F4000019308BDCC01040808B5024B1B685B681F
:100F5000019308BDC801040808B5024B1B689B68D3
:100F6000019308BDC801040808B5024B1B68DB6883
:100F7000019308BDC801040808B5024B1B681B6932
:100F8000019308BDC801040808B5024B1B685B69E2
:100F9000019308BDC801040808B5024B1B689B6992
:100FA000019308BDC801040808B5024B1B68DB6942
:100FB000019308BDC801040808B5024B1B681B6AF1
:100FC000019308BDC801040808B5024B1B681B6BE0
:100FD000019308BDC801040808B5024B1B685B6B90
:100FE000019308BDC801040808B5024B1B681B6CBF
:100FF000019308BDC801040808B5024B1B685B6C6F
:10100000019308BDC801040808B5024B1B685B6862
:10101000019308BDA401040808B5024B1B685B6975
:10102000019308BDA401040808B5034B1B68D3F85D
:101030009030019308BD0000A401040808B5034BDB
:101040001B68D3F89C30019308BD0000A40104087C
:1010500008B5024B1B681B68019308BDA00104087A
:1010600008B5024B1B685B68019308BDA00104082A
:1010700008B5024B1B68DB6B019308BDA001040897
:1010800008B5024B1B685B6C019308BDA001040806
:10109000002340681A46FFF757BF0022022140682C
:1010A000FFF762BF002240681146FFF755BF0022DC
:1010B00040681146FFF760BF002340681A46194692
:1010C000FFF762BF002340681A461946FFF764BF66
:1010D00000214068FFF788BF00214068FFF78CBF00
:1010E0000022406881F00101FFF75EBF00224068E6
:1010F000FFF76ABF002240681146FFF76DBF00226C
:1011000040681146FFF758BF70B51546002686B0F7
:10111000044604A800F0D2F92846039601F068FEC0
:101120000A4B009681B25B68284603AAFFF724FEAB
:1011300030B13146204600F0D1F9204606B070BDEE
:10114000204603A900F0C2F9F7E700BFCC05002054
:10115000024B034A1A6000225A607047680100205F
:10116000202F080870B5002604460D4640F8086F89
:10117000FFF792FE28462570FFF706FE20466660C0
:1011800070BD704741747047704708B5007CFFF729
:101190007BFE20EAE07008BD08B5007CFFF74CFE3E
:1011A00020EAE07008BD08B5007CFFF755FE40EA74
:1011B000E07008BD08B5007CFFF746FE40EAE0702D
:1011C00008BD007CFFF750BE70B5467C04460D4656
:1011D0002EB12946207CBDE87040FFF725BE007C7B
:1011E000FFF752FE0028F4DC304670BD10B504460F
:1011F000142100F075FC204610BD00004FF0000CDB
:1012000010B50446084611464FF47A72C4E901C28B
:10121000044A20742260012262741A46FFF7FCFD22
:10122000204610BD5C2F080838B50C4D2978BFF357
:101230005B8F11F001040FD12846FEF732FF58B141
:101240002146074B074A0848FFF7D8FF2846FEF714
:101250002DFF064801F08CFD034838BD70010020C9
:10126000F8010020740100207C0200208911080888
:101270007047F8B5064615460C468F18BC4206D096
:10128000336830469B6814F8011B9847F6E72846F8
:10129000F8BD0022007CFFF787BD0021007CFFF72E
:1012A0008BBD0021007CFFF78FBD0021007CFFF784
:1012B00093BD0021007CFFF797BD10B504461421B3
:1012C00000F00EFC204610BD10B54FF47A730446B2
:1012D00008460021C4E90113034B11462360207422
:1012E000FFF792FD204610BD8C2F0808417470470F
:1012F0007047704708B50021007CFFF70DFD40EAFC
:10130000E07008BD08B50121007CFFF705FD40EA4B
:10131000E07008BD08B5007CFFF7F6FC20EAE0703D
:1013200008BD08B5007CFFF7E7FC20EAE07008BDC7
:1013300038B50446007C0D46FFF7E6FC002801DCCA
:10134000607C28B12946207CFFF7EEFC20EAE070A3
:1013500038BD007CFFF7F0BC10B50446142100F046
:10136000BFFB204610BD704710B54FF47A7304469A
:1013700008460021C4E90113044B207423600123B3
:1013800011466374FFF7B0FC204610BDB42F080867
:1013900010B504461422002101F0FEFC054B204646
:1013A0006360054BE36040F20113238181232382B4
:1013B00010BD00BFC0020020C103002030B50E4D9B
:1013C00087B001A8FFF7E4FF2978BFF35B8F11F026
:1013D00001040ED12846FEF764FE50B1214601AA51
:1013E0000648FFF7C1FF2846FEF760FE044801F0FB
:1013F000BFFC024807B030BD9002002098020020D8
:10140000F112080810B504461422002101F0C4FCB2
:10141000054B20466360054BE36040F201132381D6
:101420008123238210BD00BF420400204305002019
:1014300010B50E4C86B001A8FFF7E4FF2378BFF388
:101440005B8FDB070ED42046FEF72BFE50B1012147
:1014500001AA0748FFF788FF2046FEF727FE054848
:1014600001F086FC024806B010BD00BF94020020C7
:10147000AC02002067130808704710B50446082125
:1014800000F02EFB204610BDF8B50E46002400F1FA
:101490000807051D17F8011D0A22304600F0B3F9B0
:1014A000AF42044401D12046F8BD002CF2D02E21D9
:1014B000304600F0A5F90444ECE70000024A02605F
:1014C00000224260704700BFE42F0808024A026011
:1014D0000A684260704700BFE42F0808014AC0E96B
:1014E00000217047E42F080810B59DF8084044EA31
:1014F000032444EA024444EA0164446010BD00004D
:1015000037B5044D05609DF818500095FFF7ECFFC6
:1015100003B030BDE42F08088A4210B507D0029C02
:10152000401AE41A6043521A90FBF2F0184410BDBE
:101530000021FFF771BD0000014B1860704700BF2C
:101540003800002008B5174B43B1FFF737FF036899
:101550001B699847002801DDAFF30080124B43B1AF
:10156000FFF762FE03681B699847002801DDAFF3AF
:1015700000800E4B0BB1AFF300800D4B0BB1AFF3FE
:1015800000800C4B0BB1AFF300800B4B43B1FFF766
:101590004FFF03681B699847002801DDAFF3008007
:1015A00008BD00BF000000000000000000000000B7
:1015B00000000000000000000000000008B5FFF778
:1015C000C1FFFFF791FC014B186008BD44060020E5
:1015D0000548064A08B5121A054901F0CFFB054B2C
:1015E000054A1A6008BD00BF0040024004400240A6
:1015F00080300808004002401E1C279A002307B5CF
:101600001A466FF077010093FFF718FD03B05DF8FD
:1016100004FB000007B543880A2B08D0502B0BD1E0
:10162000094B1B684BB103B05DF804EB1847FFF79B
:10163000E5FF03B05DF804FB00231A466FF0770165
:101640000093FFF7FBFCF4E7C8050020002110B56C
:101650001148FFF715FD114B1A68114B9A420CBF48
:10166000012200220F4B1A7001D0FFF7B1FFFFF7E4
:1016700023FC044601F098FB0B4B13B12046AFF35B
:10168000008000210848FFF757FCBDE8104000210A
:101690000648FFF7C9BC00BF3915080800400240E2
:1016A0001E1C279AC405002000000000151608081B
:1016B000002240681146FFF75FBCF0B5002685B0F8
:1016C000044610460F461546039601F091FB7B68D1
:1016D00081B20096284603AAFFF74EFB30B131468F
:1016E0002046FFF7FBFE204605B0F0BD204603A9CB
:1016F000FFF7ECFEF7E7002240681146FFF75CBCFD
:10170000002240681146FFF767BC00224068FFF7DF
:101710005BBC0022406881F00101FFF745BC00235B
:1017200040681A461946FFF737BC002340681A463E
:101730001946FFF729BC002240681146FFF70CBC90
:10174000002202214068FFF70FBC002340681A46C0
:10175000FFF7FABB10B52824074B22461846002194
:1017600001F01AFB4FF0FF3242600422034B048069
:101770005A60034A1A6010BDD4050020CC05002031
:10178000F82F08080022014B9A607047FC050020E2
:10179000024B1A68024B1A60704700BF30000020ED
:1017A0000C060020014B024A1A6070471006002008
:1017B00048300808F8B506460D4600248F18BD428B
:1017C0000CD0336830469B6815F8011B9847031E00
:1017D00001DB1C44F3E7002C08BF1C462046F8BD83
:1017E00070B505460C46084649B101F001FB2B686F
:1017F000024621462846BDE87040DB68184770BDA8
:1018000003689B6818470023012A98BF0A2230B555
:101810008BB00C468DF8243009A92546B4FBF2F4B0
:1018200004FB1253DBB2092B94BF30333733DBB2E6
:10183000AA4201F8013DF0D9FFF7D2FF0BB030BD4D
:1018400002220020044B1A60044B054A186098805D
:1018500098719A60FFF7D8BB20060020140600207C
:101860000000FFFFB0F900200B46511C0AD0418850
:101870008088994203D89842014628BF194690B201
:10188000FFF772BA704713B504460846B4F906105C
:10189000B4F90820884210DB9042A8BF1046A38804
:1018A00000936388FFF738FEE1680144204689B25F
:1018B00002B0BDE81040FFF7D5BF0846EFE70000D3
:1018C0004FF41663034AC0E90023B42303810023C5
:1018D000C3607047FFFF200208B5FFF7F1FF08BDA6
:1018E00010B50446B0F90000431C07D080B2FFF7E2
:1018F00033FA2046FFF7E4FF012010BD0020FCE78B
:101900002DE9F0410D4604460221284690461F4627
:10191000FFF7F2FA022803D000263046BDE8F08136
:10192000284600F071F806460028F5D0B4F90030DA
:10193000013302D02046FFF7D3FFBDF91830284607
:10194000E380BDF91C302580A4F80280A7802381A4
:10195000FFF7FAF9E1E77047002370B520254380CF
:101960001423084E044603803146856005612846ED
:1019700000F0B8F831466060284600F0B3F8E06047
:10198000204670BD4C30080810B50446FFF7E4FF50
:10199000204610BD30B50E4D87B02978BFF35B8F60
:1019A00011F0010411D12846FEF77BFB68B101A8B4
:1019B000FFF7EAFF214601AA0648FFF785FC284603
:1019C000FEF774FB044801F0D3F9024807B030BDBC
:1019D000240600202806002057190808002307B510
:1019E0001A46194600930348FFF78AFD03B05DF8D5
:1019F00004FB00BF3C060020024B986808B1FFF7CB
:101A000053BA70474C0600202E2870B5044601D901
:101A1000002070BDA0F10D03022B0BD9012824D8A2
:101A2000FFF7B8FF0021007CFFF7E6F980F0010026
:101A3000C0B2EEE7124E3178BFF35B8F11F00105B3
:101A40000DD13046FEF72DFB48B129460D48FFF772
:101A500089FB3046FEF72AFB0B4801F089F9094B58
:101A60001878FFF799F90028D2D1123C012C05D83B
:101A7000FFF7DAFB007CFFF7FFF9D7E70120C8E7A3
:101A8000480600204C060020F91908082E2838B511
:101A900004460D460AD8FF2908D0FFF7B5FF28B144
:101AA00029462046BDE83840FFF72EBA38BD38B584
:101AB00004460D46FFF730FAFF2810D0062804D858
:101AC0004D2323FA00F0C30709D42046FFF79CFFFB
:101AD00028B129462046BDE83840FFF725BA38BD71
:101AE000FEF7DDBAFEF7D9BA2DE9F04F8BB0044608
:101AF0000D4600F059F82A4B064693F900B00F4600
:101B0000BBF1FF3F12D022462B462046294600F06B
:101B100067FD824650B94FF000084FF0000920469B
:101B2000294642464B4600F033FD20B9304639463F
:101B30000BB0BDE8F08F01221A4BCDE90445CDE989
:101B40000245CDE90023CDF820A0BBF1000F17D04E
:101B500042464B464046494600F0D2FBBBF1020FDD
:101B6000CDE906010ED1FFF783FA21230360089B1C
:101B700083B9DDE90667304639460BB0BDE8F08F22
:101B8000CDE90689684600F0D3F80028EBD0089B21
:101B9000002BEED0FFF76CFA089B0360E9E700BF6B
:101BA0003400002050300808604A2DE9F0418A4393
:101BB0000E46054600F0978000290B4604464EDD90
:101BC00009155AD0C3F31303CA0743F48013A1F2D3
:101BD000FF3E03D45B0003EBD47364004FF0000CB2
:101BE000162566464FF40012E10F4FEA6E0E01EB28
:101BF00043036400B118994202DC5B1A8E189444C6
:101C00005B00013D03EBD4734FEA52024FEA4404F8
:101C1000F0D12F4620204FF0004209E03DD0E10FE7
:101C200001384FEA520201EB43034FEA44043DD02E
:101C3000B34202EB0501F1DD002901EB020509DBEE
:101C4000B0469B1BA14288BF03F1FF334646641A8E
:101C50001744E4E7002DF3DB06F10108F1E721F07A
:101C60000042024357D000294BD1E20A13461539EE
:101C70006405002AF9D0D70252D400205B00DE02AE
:101C8000054600F10100F9D51A4623468440C0F10B
:101C90002000C3401343491B94E7A142BFD8002949
:101CA00001EB0205D6DB98460023CFE7234313D18F
:101CB00078084FEA6C0303F17F5303F500131CF01F
:101CC000010F18BF40F0004003EB0E5502462B46B3
:101CD00010461946BDE8F0817B1C16BF781C0CF13C
:101CE000010C4008E5E702460B4600F0DFF92A4602
:101CF000334600F025F802460B4610461946BDE86B
:101D0000F081024600F01AF802460B4600F0F8FA9D
:101D100002460B46DCE7024619461046BDE8F08154
:101D2000234620204FF0FF35B3E700BF0000F07FCF
:101D30000020704781F0004102E000BF83F00043C3
:101D400030B54FEA41044FEA430594EA050F08BF56
:101D500090EA020F1FBF54EA000C55EA020C7FEA1A
:101D6000645C7FEA655C00F0E2804FEA5454D4EB97
:101D70005555B8BF6D420CDD2C4480EA020281EA61
:101D8000030382EA000083EA010180EA020281EA99
:101D90000303362D88BF30BD11F0004F4FEA0131EB
:101DA0004FF4801C4CEA113102D0404261EB4101FA
:101DB00013F0004F4FEA03334CEA133302D0524280
:101DC00063EB430394EA050F00F0A780A4F101043C
:101DD000D5F1200E0DDB02FA0EFC22FA05F2801876
:101DE00041F1000103FA0EF2801843FA05F359415C
:101DF0000EE0A5F120050EF1200E012A03FA0EFCDB
:101E000028BF4CF0020C43FA05F3C01851EBE37104
:101E100001F0004507D54FF0000EDCF1000C7EEB21
:101E200000006EEB0101B1F5801F1BD3B1F5001F5F
:101E30000CD349085FEA30004FEA3C0C04F101047E
:101E40004FEA445212F5800F80F09A80BCF1004FA7
:101E500008BF5FEA500C50F1000041EB045141EA29
:101E6000050130BD5FEA4C0C404141EB0101013CF2
:101E700028BFB1F5801FE9D291F0000F04BF0146E1
:101E80000020B1FA81F308BF2033A3F10B03B3F1B3
:101E900020020CDA0C3208DD02F1140CC2F10C0243
:101EA00001FA0CF021FA02F10CE002F11402D8BFA1
:101EB000C2F1200C01FA02F120FA0CFCDCBF41EA6D
:101EC0000C019040E41AA2BF01EB0451294330BD3C
:101ED0006FEA04041F3C1CDA0C340EDC04F1140419
:101EE000C4F1200220FA04F001FA02F340EA0300F0
:101EF00021FA04F345EA030130BDC4F10C04C4F136
:101F0000200220FA02F001FA04F340EA0300294615
:101F100030BD21FA04F0294630BD94F0000F83F45F
:101F2000801306BF81F480110134013D4EE77FEA42
:101F3000645C18BF7FEA655C29D094EA050F08BF8E
:101F400090EA020F05D054EA000C04BF194610466F
:101F500030BD91EA030F1EBF0021002030BD5FEAB3
:101F6000545C05D14000494128BF41F0004130BDDB
:101F700014F580043CBF01F5801130BD01F000452F
:101F800045F0FE4141F470014FF0000030BD7FEAA2
:101F9000645C1ABF194610467FEA655C1CBF0B469D
:101FA000024650EA013406BF52EA033591EA030FB4
:101FB00041F4002130BD00BF90F0000F04BF0021AC
:101FC000704730B54FF4806404F132044FF00005DF
:101FD0004FF0000150E700BF90F0000F04BF002158
:101FE000704730B54FF4806404F1320410F00045BE
:101FF00048BF40424FF000013EE700BF42004FEAB9
:10200000E2014FEA31014FEA02701FBF12F07F4335
:1020100093F07F4F81F06051704732F07F4208BFEC
:10202000704793F07F4F04BF41F40021704730B5F3
:102030004FF4607401F0004521F000411CE700BF3F
:1020400050EA010208BF704730B54FF000050AE0C2
:1020500050EA010208BF704730B511F0004502D5C3
:10206000404261EB41014FF4806404F132045FEAC5
:10207000915C3FF4D8AE4FF003025FEADC0C18BF6E
:1020800003325FEADC0C18BF033202EBDC02C2F160
:10209000200300FA03FC20FA02F001FA03FE40EAF2
:1020A0000E0021FA02F11444BDE600BF70B54FF0F6
:1020B000FF0C4CF4E06C1CEA11541DBF1CEA1355D4
:1020C00094EA0C0F95EA0C0F00F0DEF82C4481EA3C
:1020D000030621EA4C5123EA4C5350EA013518BF5C
:1020E00052EA033541F4801143F4801338D0A0FB49
:1020F00002CE4FF00005E1FB02E506F00042E0FBF6
:1021000003E54FF00006E1FB03569CF0000F18BFFB
:102110004EF0010EA4F1FF04B6F5007F64F54074A3
:1021200004D25FEA4E0E6D4146EB060642EAC62136
:1021300041EA55514FEAC52040EA5E504FEACE2EA3
:10214000B4F1FD0C88BFBCF5E06F1ED8BEF1004FA6
:1021500008BF5FEA500E50F1000041EB045170BD22
:1021600006F0004646EA010140EA020081EA030166
:10217000B4EB5C04C2BFD4EB0C0541EA045170BD62
:1021800041F480114FF0000E013C00F3AB8014F1DC
:10219000360FDEBF002001F0004170BDC4F1000425
:1021A000203C35DA0C341BDC04F11404C4F12005A6
:1021B00000FA05F320FA04F001FA05F240EA020001
:1021C00001F0004221F0004110EBD37021FA04F637
:1021D00042EB06015EEA430E08BF20EAD37070BDF1
:1021E000C4F10C04C4F1200500FA04F320FA05F050
:1021F00001FA04F240EA020001F0004110EBD37052
:1022000041F100015EEA430E08BF20EAD37070BDC1
:10221000C4F1200500FA05F24EEA020E20FA04F39A
:1022200001FA05F243EA020321FA04F001F0004149
:1022300021FA04F220EA020000EBD3705EEA430EBA
:1022400008BF20EAD37070BD94F0000F0FD101F0E9
:102250000046400041EB010111F4801F08BF013C22
:10226000F7D041EA060195F0000F18BF704703F060
:102270000046520043EB030313F4801F08BF013DE7
:10228000F7D043EA0603704794EA0C0F0CEA1355A3
:1022900018BF95EA0C0F0CD050EA410618BF52EA5D
:1022A0004306D1D181EA030101F000414FF0000063
:1022B00070BD50EA410606BF1046194652EA430671
:1022C00019D094EA0C0F02D150EA013613D195EAE5
:1022D0000C0F05D152EA03361CBF104619460AD12D
:1022E00081EA030101F0004141F0FE4141F4700137
:1022F0004FF0000070BD41F0FE4141F4780170BD27
:1023000070B54FF0FF0C4CF4E06C1CEA11541DBF8B
:102310001CEA135594EA0C0F95EA0C0F00F0A7F88D
:10232000A4EB050481EA030E52EA03354FEA0131BA
:1023300000F088804FEA03334FF0805545EA1313CD
:1023400043EA12634FEA022245EA111545EA106595
:102350004FEA00260EF000419D4208BF964244F12C
:10236000FD0404F5407402D25B084FEA3202B61A4B
:1023700065EB03055B084FEA32024FF480104FF41F
:10238000002CB6EB020E75EB030E22BFB61A754693
:1023900040EA0C005B084FEA3202B6EB020E75EB26
:1023A000030E22BFB61A754640EA5C005B084FEA8E
:1023B0003202B6EB020E75EB030E22BFB61A75465B
:1023C00040EA9C005B084FEA3202B6EB020E75EB66
:1023D000030E22BFB61A754640EADC0055EA060E27
:1023E00018D04FEA051545EA16754FEA06164FEA6A
:1023F000C30343EA52734FEAC2025FEA1C1CC0D116
:1024000011F4801F0BD141EA00014FF000004FF0A2
:10241000004CB6E711F4801F04BF01430020B4F163
:10242000FD0C88BFBCF5E06F3FF6AFAEB5EB030C1B
:1024300004BFB6EB020C5FEA500C50F1000041EB18
:10244000045170BD0EF0004E4EEA113114EB5C04E5
:10245000C2BFD4EB0C0541EA045170BD41F48011B8
:102460004FF0000E013C90E645EA060E8DE60CEAC0
:10247000135594EA0C0F08BF95EA0C0F3FF43BAFDD
:1024800094EA0C0F0AD150EA01347FF434AF95EA94
:102490000C0F7FF425AF104619462CE795EA0C0F78
:1024A00006D152EA03353FF4FDAE1046194622E745
:1024B00050EA410618BF52EA43067FF4C5AE50EA1F
:1024C00041047FF40DAF52EA43057FF4EBAE12E70F
:1024D0004FF0FF3C06E000BF4FF0010C02E000BFF0
:1024E0004FF0010C4DF804CD4FEA410C7FEA6C5CD3
:1024F0004FEA430C18BF7FEA6C5C1BD001B050EA76
:10250000410C0CBF52EA430C91EA030F02BF90EA60
:10251000020F0020704710F1000F91EA030F58BF1F
:10252000994208BF90422CBFD8176FEAE37040F081
:10253000010070474FEA410C7FEA6C5C02D150EA1F
:10254000013C07D14FEA430C7FEA6C5CD6D152EADA
:10255000033CD3D05DF8040B704700BF844610469F
:1025600062468C461946634600E000BF01B5FFF79E
:10257000B7FF002848BF10F1000F01BD4DF808ED6E
:10258000FFF7F4FF0CBF012000205DF808FB00BF3F
:102590004DF808EDFFF7EAFF34BF012000205DF899
:1025A00008FB00BF4DF808EDFFF7E0FF94BF0120E6
:1025B00000205DF808FB00BF4DF808EDFFF7CEFFE7
:1025C00094BF012000205DF808FB00BF4DF808ED26
:1025D000FFF7C4FF34BF012000205DF808FB00BFF7
:1025E0004FEA410C7FEA6C5C02D150EA013C0AD10F
:1025F0004FEA430C7FEA6C5C02D152EA033C02D101
:102600004FF0000070474FF0010070474FEA410261
:1026100012F5001215D211D56FF47873B3EB625234
:1026200012D94FEAC12343F0004343EA505311F05B
:10263000004F23FA02F018BF404270474FF00000ED
:10264000704750EA013005D111F0004008BF6FF02B
:10265000004070474FF00000704700BF4A0011D2A1
:1026600012F5001211D20DD56FF47873B3EB6252EC
:102670000ED44FEAC12343F0004343EA505323FAF8
:1026800002F070474FF00000704750EA013002D16D
:102690004FF0FF3070474FF0000070474FEA4102A3
:1026A000B2F1E04324BFB3F5001CDCF1FE5C0DD9B0
:1026B00001F0004C4FEAC0024CEA5070B2F1004FFA
:1026C00040EB830008BF20F00100704711F0804FFD
:1026D00021D113F13872BCBF01F00040704741F4C2
:1026E00080114FEA5252C2F11802C2F1200C10FAC6
:1026F0000CF320FA02F018BF40F001004FEAC123AA
:102700004FEAD32303FA0CFC40EA0C0023FA02F34D
:102710004FEA4303CCE77FEA625307D150EA013323
:102720001EBF4FF0FE4040F44000704701F00040F3
:1027300040F0FE4040F40000704700BF80F00040D1
:1027400002E000BF81F0004142001FBF5FEA410389
:1027500092EA030F7FEA226C7FEA236C6AD04FEA89
:102760001262D2EB1363C1BFD218414048404140CE
:10277000B8BF5B42192B88BF704710F0004F40F480
:10278000000020F07F4018BF404211F0004F41F49C
:10279000000121F07F4118BF494292EA030F3FD068
:1027A000A2F1010241FA03FC10EB0C00C3F120037B
:1027B00001FA03F100F0004302D5494260EB40000A
:1027C000B0F5000F13D3B0F1807F06D340084FEA75
:1027D000310102F10102FE2A51D2B1F1004F40EB6A
:1027E000C25008BF20F0010040EA030070474900D2
:1027F00040EB0000013A28BFB0F5000FEDD2B0FA6F
:1028000080FCACF1080CB2EB0C0200FA0CF0AABF91
:1028100000EBC25052421843BCBFD040184370472F
:1028200092F0000F81F4000106BF80F40000013235
:10283000013BB5E74FEA41037FEA226C18BF7FEA0C
:10284000236C21D092EA030F04D092F0000F08BF4E
:102850000846704790EA010F1CBF0020704712F035
:102860007F4F04D1400028BF40F00040704712F174
:1028700000723CBF00F50000704700F0004343F0D9
:10288000FE4040F4000070477FEA226216BF08460F
:102890007FEA23630146420206BF5FEA412390EAD2
:1028A000010F40F4800070474FF0000304E000BFC8
:1028B00010F0004348BF40425FEA000C08BF704779
:1028C00043F0964301464FF000001CE050EA01023D
:1028D00008BF70474FF000030AE000BF50EA010252
:1028E00008BF704711F0004302D5404261EB41013F
:1028F0005FEA010C02BF84460146002043F0B64364
:1029000008BFA3F18053A3F50003BCFA8CF2083A88
:10291000A3EBC25310DB01FA02FC634400FA02FC91
:10292000C2F12002BCF1004F20FA02F243EB020098
:1029300008BF20F00100704702F1200201FA02FCFA
:10294000C2F1200250EA4C0021FA02F243EB0200ED
:1029500008BF20EADC7070474FF0FF0C1CEAD05231
:102960001EBF1CEAD15392EA0C0F93EA0C0F6FD0F2
:102970001A4480EA010C400218BF5FEA41211ED0D0
:102980004FF0006343EA501043EA5111A0FB0131BC
:102990000CF00040B1F5000F3EBF490041EAD37191
:1029A0005B0040EA010062F17F02FD2A1DD8B3F10D
:1029B000004F40EBC25008BF20F00100704790F07C
:1029C000000F0CF0004C08BF49024CEA502040EACE
:1029D00051207F3AC2BFD2F1FF0340EAC250704794
:1029E00040F400004FF00003013A5DDC12F1190FD2
:1029F000DCBF00F000407047C2F10002410021FA44
:102A000002F1C2F1200200FA02FC5FEA310040F15B
:102A1000000053EA4C0308BF20EADC70704792F0D4
:102A2000000F00F0004C02BF400010F4000F013A0C
:102A3000F9D040EA0C0093F0000F01F0004C02BF07
:102A4000490011F4000F013BF9D041EA0C018FE776
:102A50000CEAD15392EA0C0F18BF93EA0C0F0AD07C
:102A600030F0004C18BF31F0004CD8D180EA0100A2
:102A700000F00040704790F0000F17BF90F0004F3B
:102A8000084691F0000F91F0004F14D092EA0C0F1D
:102A900001D142020FD193EA0C0F03D14B0218BFB0
:102AA000084608D180EA010000F0004040F0FE40F6
:102AB00040F40000704740F0FE4040F44000704792
:102AC0004FF0FF0C1CEAD0521EBF1CEAD15392EA11
:102AD0000C0F93EA0C0F69D0A2EB030280EA010C01
:102AE00049024FEA402037D04FF0805343EA11119A
:102AF00043EA10130CF000408B4238BF5B0042F1F8
:102B00007D024FF4000C8B4224BF5B1A40EA0C009C
:102B1000B3EB510F24BFA3EB510340EA5C00B3EBCE
:102B2000910F24BFA3EB910340EA9C00B3EBD10FBC
:102B300024BFA3EBD10340EADC001B0118BF5FEA0E
:102B40001C1CE0D1FD2A3FF650AF8B4240EBC25037
:102B500008BF20F0010070470CF0004C4CEA5020F8
:102B60007F32C2BFD2F1FF0340EAC250704740F447
:102B700000004FF00003013A37E792F0000F00F039
:102B8000004C02BF400010F4000F013AF9D040EAB7
:102B90000C0093F0000F01F0004C02BF490011F44B
:102BA000000F013BF9D041EA0C0195E70CEAD15343
:102BB00092EA0C0F08D142027FF47DAF93EA0C0F2A
:102BC0007FF470AF084676E793EA0C0F04D14B020E
:102BD0003FF44CAF08466EE730F0004C18BF31F0C0
:102BE000004CCAD130F000427FF45CAF31F00043BA
:102BF0007FF43CAF5FE700BF4FF0FF3C06E000BF53
:102C00004FF0010C02E000BF4FF0010C4DF804CD75
:102C10004FEA40024FEA41037FEA226C18BF7FEA85
:102C2000236C11D001B052EA530C18BF90EA010F87
:102C300058BFB2EB030088BFC81738BF6FEAE17016
:102C400018BF40F0010070477FEA226C02D15FEAB2
:102C5000402C05D17FEA236CE4D15FEA412CE1D01E
:102C60005DF8040B704700BF844608466146FFE7E5
:102C70000FB5FFF7C9FF002848BF10F1000F0FBDC7
:102C80004DF808EDFFF7F4FF0CBF012000205DF8C0
:102C900008FB00BF4DF808EDFFF7EAFF34BF012045
:102CA00000205DF808FB00BF4DF808EDFFF7E0FFDE
:102CB00094BF012000205DF808FB00BF4DF808ED2F
:102CC000FFF7D2FF94BF012000205DF808FB00BF92
:102CD0004DF808EDFFF7C8FF34BF012000205DF874
:102CE00008FB00BF4FEA4002B2F1FE4F0FD34FF096
:102CF0009E03B3EB12620DD94FEA002343F0004369
:102D000010F0004F23FA02F018BF404270474FF016
:102D10000000704712F1610F01D1420205D110F09D
:102D2000004008BF6FF0004070474FF00000704750
:102D300042000ED2B2F1FE4F0BD34FF09E03B3EB25
:102D4000126209D44FEA002343F0004323FA02F051
:102D500070474FF00000704712F1610F01D142023D
:102D600002D14FF0FF3070474FF00000704700BFB6
:102D7000002301461A46184600F042B80A44914220
:102D800000F1FF3300D1704710B511F8014B9142AB
:102D900003F8014FF9D110BD03460244934200D11C
:102DA000704703F8011BF9E738B50D4B04461D6861
:102DB000AB6B7BB91820FEF74BF90A4A0A4BA863A4
:102DC000C0E90023094B012283600B238381002388
:102DD000C0E904230022AB6B1C615A6138BD00BFFF
:102DE000380000200E33CDAB34126DE6ECDE05006A
:102DF000034613F8012B002AFBD1181A013870473B
:102E00002DE9F843DFF8BC800646D8F800001F46DD
:102E10000D46914600F058F8264B1C6834B9264CF4
:102E20001C60264B13B11B68C4F8883063681F2BE5
:102E300007DDD8F8000000F049F84FF0FF30BDE89A
:102E4000F8835EB3D4F8880088B91D4B23B9D8F84D
:102E5000000000F03AF8F0E74FF48470FEF7F8F85D
:102E60000028F4D00023C0E94033C4F888000122D0
:102E70006368022E40F8239002FA03F200EB83010C
:102E8000D0F8003143EA0203C0F80031C1F8807085
:102E900002BFD0F804311A43C0F804216368D8F89F
:102EA00000005A1C0233626044F8235000F00EF810
:102EB0000020C4E7E40600205806002000000000BF
:102EC000511008089C0000207047704770470000B0
:102ED0002100080861000808890008088D0008081A
:102EE0000000000000000000000000008908080841
:102EF000B908080879070808B5060808030808088B
:102F0000BB0708081D0808083F08080867080808E4
:102F1000F50608083F070808000000000000000050
:102F2000911008089B100808A5100808AF100808A1
:102F3000B9100808C5100808D1100808D9100808E9
:102F4000E1100808ED100808F5100808FF1008083F
:102F500009110808000000000000000083110808A3
:102F6000ED110808C9110808B517080899110808D3
:102F7000B5110808A7110808C31108088511080829
:102F80008B11080800000000000000007112080802
:102F9000BB12080893120808731208089B1208084D
:102FA000A3120808AB120808B312080800000000BA
:102FB00000000000F312080859130808311308082C
:102FC000B517080823130808F512080805130808A0
:102FD0005313080815130808ED1208080000000034
:102FE0000000000089140808791408087B140808F8
:102FF00000000000000000004B17080841170808F7
:1030000037170808B11608082B1708081F170808F3
:10301000D1100808D9100808131708080B1708085A
:1030200001170808F7160808BB16080825592D25AA
:103030006D2D25645425483A254D3A2553257A00AF
:1030400061736374696D6500617070000000000059
:1030500073717274000000006106080851110808BD
:10306000551708088517080891170808A5170808B4
:1030700041180808DD1908080000000000000000E1
:04308000000000004C
:10308400190000001C000000020000000300000002
:103094000400000005000000060000000700000016
:1030A4001A000000180000000F0000001D000000BE
:1030B40040300808010000003C000020000000002F
:1030C40000000000000000000000000000000000FC
:1030D40000000000000000000000000000000000EC
:1030E40000000000000000000000000000000000DC
:1030F40000000000000000000000000000000000CC
:1031040000000000000000000000000000000000BB
:10311400000000000000000000000000E90600209C
:10312400FFFFFFFF00000102030405060708090A68
:103134000B0C0D0E0F101112131415161718191A63
:083144001B1C1D1E1F202800AA
:04314C00785634126B
:0400000508080020C7
:00000001FF
